:100000000200CE32000000000000003200000000BC
:10001000000000320000000000000032000000007C
:1000200000000032000000000000000000007B041F
:1000300074FA11C2DBFADAF622C0E0740311C2D0FE
:10004000E0220022D2B41142D2B311427F0AD3304F
:10005000B40C30B309DFF8C2B31142C2B4C3920486
:1000600022C2B31142D2B41142D2B32292B311428E
:10007000500C7F0A20B307DFFBD2B4D38013D2B475
:1000800011427F0A20B407DFFBD2B3D38003C2B48E
:10009000C322D2B31142D2B411427F0A20B405DF89
:1000A000FBD38007A2B392D5C2B4C3227E0833111A
:1000B0006C400CDEF911924006A2D55002116192FB
:1000C000042278107903D8FED9FCD5E0F522787F98
:1000D000E4F6D8FD75812175200074F411C211E891
:1000E0007A58112EC2AF80FE114474C411AC74084A
:1000F00011AC740C11AC74A411AC743311AC74F069
:1001000011AC740A11C222000000000000000000BF
:00000001FF
